:0400000007EF00F016
:1000080005825AED00F049EF00F09494EC0ECF6EA3
:10001800780ECE6E800ECD6EEC0EBF6EF50EBE6EF7
:10002800090EBD6E9E909D80F28CF28ECD80000EE2
:10003800026E7D0E016E030E046E8A0E036E560E5E
:10004800E82EFED7032EFCD7042EFAD7010E026E37
:10005800770E016E030E046E8A0E036E560EE82E9E
:10006800FED7032EFCD7042EFAD7020E026E710EAD
:10007800016E030E046E8A0E036E560EE82EFED72E
:10008800032EFCD7042EFAD7D2D7D40EF66E000E64
:10009800F76E000EF86E0900F5CF01F00900F5CFF4
:1000A80002F005900592000109EF00F006009E900D
:1000B800EC0ECF6E780ECE6E780E0124BE6EEC0E6E
:0E00C8000220BF6E090EBD6E059211007D0074
:020000040020DA
:08000000FFFFFFFFFFFFFFFF00
:020000040030CA
:0E00000000091F1EFF8385FF0FC00FE00F4099
:00000001FF
